{
  "contractName": "TouristRegistry",
  "abi": [
    {
      "inputs": [],
      "stateMutability": "nonpayable",
      "type": "constructor"
    },
    {
      "inputs": [],
      "name": "AccessControlBadConfirmation",
      "type": "error"
    },
    {
      "inputs": [
        {
          "internalType": "address",
          "name": "account",
          "type": "address"
        },
        {
          "internalType": "bytes32",
          "name": "neededRole",
          "type": "bytes32"
        }
      ],
      "name": "AccessControlUnauthorizedAccount",
      "type": "error"
    },
    {
      "anonymous": false,
      "inputs": [
        {
          "indexed": true,
          "internalType": "bytes32",
          "name": "subjectHash",
          "type": "bytes32"
        },
        {
          "indexed": false,
          "internalType": "string",
          "name": "cid",
          "type": "string"
        },
        {
          "indexed": true,
          "internalType": "address",
          "name": "issuer",
          "type": "address"
        },
        {
          "indexed": true,
          "internalType": "uint256",
          "name": "attestationId",
          "type": "uint256"
        },
        {
          "indexed": false,
          "internalType": "uint256",
          "name": "timestamp",
          "type": "uint256"
        },
        {
          "indexed": false,
          "internalType": "string",
          "name": "meta",
          "type": "string"
        }
      ],
      "name": "KycAnchored",
      "type": "event"
    },
    {
      "anonymous": false,
      "inputs": [
        {
          "indexed": true,
          "internalType": "bytes32",
          "name": "role",
          "type": "bytes32"
        },
        {
          "indexed": true,
          "internalType": "bytes32",
          "name": "previousAdminRole",
          "type": "bytes32"
        },
        {
          "indexed": true,
          "internalType": "bytes32",
          "name": "newAdminRole",
          "type": "bytes32"
        }
      ],
      "name": "RoleAdminChanged",
      "type": "event"
    },
    {
      "anonymous": false,
      "inputs": [
        {
          "indexed": true,
          "internalType": "bytes32",
          "name": "role",
          "type": "bytes32"
        },
        {
          "indexed": true,
          "internalType": "address",
          "name": "account",
          "type": "address"
        },
        {
          "indexed": true,
          "internalType": "address",
          "name": "sender",
          "type": "address"
        }
      ],
      "name": "RoleGranted",
      "type": "event"
    },
    {
      "anonymous": false,
      "inputs": [
        {
          "indexed": true,
          "internalType": "bytes32",
          "name": "role",
          "type": "bytes32"
        },
        {
          "indexed": true,
          "internalType": "address",
          "name": "account",
          "type": "address"
        },
        {
          "indexed": true,
          "internalType": "address",
          "name": "sender",
          "type": "address"
        }
      ],
      "name": "RoleRevoked",
      "type": "event"
    },
    {
      "anonymous": false,
      "inputs": [
        {
          "indexed": true,
          "internalType": "address",
          "name": "touristAddress",
          "type": "address"
        },
        {
          "indexed": false,
          "internalType": "string",
          "name": "fullName",
          "type": "string"
        },
        {
          "indexed": false,
          "internalType": "string",
          "name": "kycId",
          "type": "string"
        },
        {
          "indexed": false,
          "internalType": "string",
          "name": "visitStart",
          "type": "string"
        },
        {
          "indexed": false,
          "internalType": "string",
          "name": "visitEnd",
          "type": "string"
        },
        {
          "indexed": false,
          "internalType": "string",
          "name": "emergencyContacts",
          "type": "string"
        }
      ],
      "name": "TouristRegistered",
      "type": "event"
    },
    {
      "inputs": [],
      "name": "DEFAULT_ADMIN_ROLE",
      "outputs": [
        {
          "internalType": "bytes32",
          "name": "",
          "type": "bytes32"
        }
      ],
      "stateMutability": "view",
      "type": "function",
      "constant": true
    },
    {
      "inputs": [],
      "name": "EMERGENCY_ROLE",
      "outputs": [
        {
          "internalType": "bytes32",
          "name": "",
          "type": "bytes32"
        }
      ],
      "stateMutability": "view",
      "type": "function",
      "constant": true
    },
    {
      "inputs": [],
      "name": "VERIFIER_ROLE",
      "outputs": [
        {
          "internalType": "bytes32",
          "name": "",
          "type": "bytes32"
        }
      ],
      "stateMutability": "view",
      "type": "function",
      "constant": true
    },
    {
      "inputs": [
        {
          "internalType": "bytes32",
          "name": "role",
          "type": "bytes32"
        }
      ],
      "name": "getRoleAdmin",
      "outputs": [
        {
          "internalType": "bytes32",
          "name": "",
          "type": "bytes32"
        }
      ],
      "stateMutability": "view",
      "type": "function",
      "constant": true
    },
    {
      "inputs": [
        {
          "internalType": "bytes32",
          "name": "role",
          "type": "bytes32"
        },
        {
          "internalType": "address",
          "name": "account",
          "type": "address"
        }
      ],
      "name": "grantRole",
      "outputs": [],
      "stateMutability": "nonpayable",
      "type": "function"
    },
    {
      "inputs": [
        {
          "internalType": "bytes32",
          "name": "role",
          "type": "bytes32"
        },
        {
          "internalType": "address",
          "name": "account",
          "type": "address"
        }
      ],
      "name": "hasRole",
      "outputs": [
        {
          "internalType": "bool",
          "name": "",
          "type": "bool"
        }
      ],
      "stateMutability": "view",
      "type": "function",
      "constant": true
    },
    {
      "inputs": [
        {
          "internalType": "bytes32",
          "name": "role",
          "type": "bytes32"
        },
        {
          "internalType": "address",
          "name": "callerConfirmation",
          "type": "address"
        }
      ],
      "name": "renounceRole",
      "outputs": [],
      "stateMutability": "nonpayable",
      "type": "function"
    },
    {
      "inputs": [
        {
          "internalType": "bytes32",
          "name": "role",
          "type": "bytes32"
        },
        {
          "internalType": "address",
          "name": "account",
          "type": "address"
        }
      ],
      "name": "revokeRole",
      "outputs": [],
      "stateMutability": "nonpayable",
      "type": "function"
    },
    {
      "inputs": [
        {
          "internalType": "bytes4",
          "name": "interfaceId",
          "type": "bytes4"
        }
      ],
      "name": "supportsInterface",
      "outputs": [
        {
          "internalType": "bool",
          "name": "",
          "type": "bool"
        }
      ],
      "stateMutability": "view",
      "type": "function",
      "constant": true
    },
    {
      "inputs": [
        {
          "internalType": "string",
          "name": "_fullName",
          "type": "string"
        },
        {
          "internalType": "string",
          "name": "_kycId",
          "type": "string"
        },
        {
          "internalType": "string",
          "name": "_visitStart",
          "type": "string"
        },
        {
          "internalType": "string",
          "name": "_visitEnd",
          "type": "string"
        },
        {
          "internalType": "string",
          "name": "_emergencyContacts",
          "type": "string"
        }
      ],
      "name": "registerTourist",
      "outputs": [],
      "stateMutability": "nonpayable",
      "type": "function"
    },
    {
      "inputs": [
        {
          "internalType": "address",
          "name": "_touristAddress",
          "type": "address"
        }
      ],
      "name": "getTourist",
      "outputs": [
        {
          "internalType": "string",
          "name": "fullName",
          "type": "string"
        },
        {
          "internalType": "string",
          "name": "kycId",
          "type": "string"
        },
        {
          "internalType": "string",
          "name": "visitStart",
          "type": "string"
        },
        {
          "internalType": "string",
          "name": "visitEnd",
          "type": "string"
        },
        {
          "internalType": "string",
          "name": "emergencyContacts",
          "type": "string"
        }
      ],
      "stateMutability": "view",
      "type": "function",
      "constant": true
    },
    {
      "inputs": [],
      "name": "getAllRegisteredTourists",
      "outputs": [
        {
          "internalType": "address[]",
          "name": "",
          "type": "address[]"
        }
      ],
      "stateMutability": "view",
      "type": "function",
      "constant": true
    },
    {
      "inputs": [
        {
          "internalType": "bytes32",
          "name": "subjectHash",
          "type": "bytes32"
        },
        {
          "internalType": "string",
          "name": "cid",
          "type": "string"
        },
        {
          "internalType": "string",
          "name": "meta",
          "type": "string"
        }
      ],
      "name": "anchorKyc",
      "outputs": [
        {
          "internalType": "uint256",
          "name": "attestationId",
          "type": "uint256"
        }
      ],
      "stateMutability": "nonpayable",
      "type": "function"
    },
    {
      "inputs": [
        {
          "internalType": "bytes32",
          "name": "subjectHash",
          "type": "bytes32"
        }
      ],
      "name": "hasKyc",
      "outputs": [
        {
          "internalType": "bool",
          "name": "",
          "type": "bool"
        }
      ],
      "stateMutability": "view",
      "type": "function",
      "constant": true
    },
    {
      "inputs": [
        {
          "internalType": "bytes32",
          "name": "subjectHash",
          "type": "bytes32"
        }
      ],
      "name": "getLatestAttestation",
      "outputs": [
        {
          "internalType": "string",
          "name": "cid",
          "type": "string"
        },
        {
          "internalType": "uint256",
          "name": "timestamp",
          "type": "uint256"
        },
        {
          "internalType": "address",
          "name": "issuer",
          "type": "address"
        },
        {
          "internalType": "string",
          "name": "meta",
          "type": "string"
        }
      ],
      "stateMutability": "view",
      "type": "function",
      "constant": true
    },
    {
      "inputs": [
        {
          "internalType": "bytes32",
          "name": "subjectHash",
          "type": "bytes32"
        },
        {
          "internalType": "uint256",
          "name": "index",
          "type": "uint256"
        }
      ],
      "name": "getAttestationByIndex",
      "outputs": [
        {
          "internalType": "string",
          "name": "cid",
          "type": "string"
        },
        {
          "internalType": "uint256",
          "name": "timestamp",
          "type": "uint256"
        },
        {
          "internalType": "address",
          "name": "issuer",
          "type": "address"
        },
        {
          "internalType": "string",
          "name": "meta",
          "type": "string"
        }
      ],
      "stateMutability": "view",
      "type": "function",
      "constant": true
    },
    {
      "inputs": [
        {
          "internalType": "bytes32",
          "name": "subjectHash",
          "type": "bytes32"
        }
      ],
      "name": "attestationCount",
      "outputs": [
        {
          "internalType": "uint256",
          "name": "",
          "type": "uint256"
        }
      ],
      "stateMutability": "view",
      "type": "function",
      "constant": true
    },
    {
      "inputs": [
        {
          "internalType": "address",
          "name": "who",
          "type": "address"
        }
      ],
      "name": "grantVerifier",
      "outputs": [],
      "stateMutability": "nonpayable",
      "type": "function"
    },
    {
      "inputs": [
        {
          "internalType": "address",
          "name": "who",
          "type": "address"
        }
      ],
      "name": "revokeVerifier",
      "outputs": [],
      "stateMutability": "nonpayable",
      "type": "function"
    },
    {
      "inputs": [
        {
          "internalType": "address",
          "name": "who",
          "type": "address"
        }
      ],
      "name": "grantEmergencyResponder",
      "outputs": [],
      "stateMutability": "nonpayable",
      "type": "function"
    },
    {
      "inputs": [
        {
          "internalType": "address",
          "name": "who",
          "type": "address"
        }
      ],
      "name": "revokeEmergencyResponder",
      "outputs": [],
      "stateMutability": "nonpayable",
      "type": "function"
    }
  ],
  "bytecode": "0x608060405234801562000010575f80fd5b505f339050620000295f801b826200009760201b60201c565b506200005c7f0ce23c3e399818cfee81a7ab0880f714e53d7672b08df0fa62f2843416e1ea09826200009760201b60201c565b506200008f7fbf233dd2aafeb4d50879c4aa5c81e96d92f6e6945c906a58f9f2d1c1631b4b26826200009760201b60201c565b5050620001fc565b5f620000aa83836200019260201b60201c565b620001885760015f808581526020019081526020015f205f015f8473ffffffffffffffffffffffffffffffffffffffff1673ffffffffffffffffffffffffffffffffffffffff1681526020019081526020015f205f6101000a81548160ff02191690831515021790555062000124620001f560201b60201c565b73ffffffffffffffffffffffffffffffffffffffff168273ffffffffffffffffffffffffffffffffffffffff16847f2f8788117e7eff1d82e926ec794901d17c78024a50270940304540a733656f0d60405160405180910390a4600190506200018c565b5f90505b92915050565b5f805f8481526020019081526020015f205f015f8373ffffffffffffffffffffffffffffffffffffffff1673ffffffffffffffffffffffffffffffffffffffff1681526020019081526020015f205f9054906101000a900460ff16905092915050565b5f33905090565b6124a8806200020a5f395ff3fe608060405234801561000f575f80fd5b5060043610610135575f3560e01c8063749b26d5116100b6578063bf33cd4a1161007a578063bf33cd4a1461035f578063c2204ef914610393578063d547741f146103b1578063d65ddd52146103cd578063e3855e44146103fd578063e7705db61461042d57610135565b8063749b26d5146102bd57806387cfdcac146102d957806391d14854146102f5578063a217fddf14610325578063bd02a2351461034357610135565b80632f2ff15d116100fd5780632f2ff15d1461020657806336568abe1461022257806337b1801f1461023e578063463dd5d41461026e5780635edf03141461028a57610135565b806301ffc9a7146101395780631589d130146101695780631f9522d91461019c57806320df4359146101b8578063248a9ca3146101d6575b5f80fd5b610153600480360381019061014e9190611750565b61044b565b6040516101609190611795565b60405180910390f35b610183600480360381019061017e9190611814565b6104c4565b604051610193949392919061192a565b60405180910390f35b6101b660048036038101906101b191906119a5565b6106d4565b005b6101c061070e565b6040516101cd91906119df565b60405180910390f35b6101f060048036038101906101eb91906119f8565b610732565b6040516101fd91906119df565b60405180910390f35b610220600480360381019061021b9190611a23565b61074e565b005b61023c60048036038101906102379190611a23565b610770565b005b61025860048036038101906102539190611ac2565b6107eb565b6040516102659190611b53565b60405180910390f35b610288600480360381019061028391906119a5565b610a2e565b005b6102a4600480360381019061029f91906119f8565b610a68565b6040516102b4949392919061192a565b60405180910390f35b6102d760048036038101906102d291906119a5565b610c96565b005b6102f360048036038101906102ee9190611c94565b610cd0565b005b61030f600480360381019061030a9190611a23565b610eff565b60405161031c9190611795565b60405180910390f35b61032d610f62565b60405161033a91906119df565b60405180910390f35b61035d600480360381019061035891906119a5565b610f68565b005b610379600480360381019061037491906119a5565b610fa2565b60405161038a959493929190611d97565b60405180910390f35b61039b611336565b6040516103a89190611ec2565b60405180910390f35b6103cb60048036038101906103c69190611a23565b6113c1565b005b6103e760048036038101906103e291906119f8565b6113e3565b6040516103f49190611b53565b60405180910390f35b610417600480360381019061041291906119f8565b611400565b6040516104249190611795565b60405180910390f35b61043561141f565b60405161044291906119df565b60405180910390f35b5f7f7965db0b000000000000000000000000000000000000000000000000000000007bffffffffffffffffffffffffffffffffffffffffffffffffffffffff1916827bffffffffffffffffffffffffffffffffffffffffffffffffffffffff191614806104bd57506104bc82611443565b5b9050919050565b60605f8060607f0ce23c3e399818cfee81a7ab0880f714e53d7672b08df0fa62f2843416e1ea096104f4816114ac565b60035f8881526020019081526020015f2080549050861061054a576040517f08c379a000000000000000000000000000000000000000000000000000000000815260040161054190611f2c565b60405180910390fd5b5f60035f8981526020019081526020015f20878154811061056e5761056d611f4a565b5b905f5260205f2090600502019050806001018160020154826003015f9054906101000a900473ffffffffffffffffffffffffffffffffffffffff16836004018380546105b990611fa4565b80601f01602080910402602001604051908101604052809291908181526020018280546105e590611fa4565b80156106305780601f1061060757610100808354040283529160200191610630565b820191905f5260205f20905b81548152906001019060200180831161061357829003601f168201915b5050505050935080805461064390611fa4565b80601f016020809104026020016040519081016040528092919081815260200182805461066f90611fa4565b80156106ba5780601f10610691576101008083540402835291602001916106ba565b820191905f5260205f20905b81548152906001019060200180831161069d57829003601f168201915b505050505090509550955095509550505092959194509250565b5f801b6106e0816114ac565b61070a7fbf233dd2aafeb4d50879c4aa5c81e96d92f6e6945c906a58f9f2d1c1631b4b26836113c1565b5050565b7fbf233dd2aafeb4d50879c4aa5c81e96d92f6e6945c906a58f9f2d1c1631b4b2681565b5f805f8381526020019081526020015f20600101549050919050565b61075782610732565b610760816114ac565b61076a83836114c0565b50505050565b6107786115a9565b73ffffffffffffffffffffffffffffffffffffffff168173ffffffffffffffffffffffffffffffffffffffff16146107dc576040517f6697b23200000000000000000000000000000000000000000000000000000000815260040160405180910390fd5b6107e682826115b0565b505050565b5f7f0ce23c3e399818cfee81a7ab0880f714e53d7672b08df0fa62f2843416e1ea09610816816114ac565b5f6040518060a0016040528089815260200188888080601f0160208091040260200160405190810160405280939291908181526020018383808284375f81840152601f19601f82011690508083019250505050505050815260200142815260200161087f6115a9565b73ffffffffffffffffffffffffffffffffffffffff16815260200186868080601f0160208091040260200160405190810160405280939291908181526020018383808284375f81840152601f19601f82011690508083019250505050505050815250905060035f8981526020019081526020015f2081908060018154018082558091505060019003905f5260205f2090600502015f909190919091505f820151815f015560208201518160010190816109389190612171565b50604082015181600201556060820151816003015f6101000a81548173ffffffffffffffffffffffffffffffffffffffff021916908373ffffffffffffffffffffffffffffffffffffffff160217905550608082015181600401908161099e9190612171565b505050600160035f8a81526020019081526020015f20805490506109c2919061226d565b9250826109cd6115a9565b73ffffffffffffffffffffffffffffffffffffffff16897fa27f58cdf33f60c0d076610af4631b3516b28c1fd9aa37ae6753a41f156e2e298a8a428b8b604051610a1b9594939291906122cc565b60405180910390a4505095945050505050565b5f801b610a3a816114ac565b610a647fbf233dd2aafeb4d50879c4aa5c81e96d92f6e6945c906a58f9f2d1c1631b4b268361074e565b5050565b60605f8060607fbf233dd2aafeb4d50879c4aa5c81e96d92f6e6945c906a58f9f2d1c1631b4b26610a98816114ac565b5f60035f8881526020019081526020015f208054905011610aee576040517f08c379a0000000000000000000000000000000000000000000000000000000008152600401610ae59061235d565b60405180910390fd5b5f60035f8881526020019081526020015f20600160035f8a81526020019081526020015f2080549050610b21919061226d565b81548110610b3257610b31611f4a565b5b905f5260205f2090600502019050806001018160020154826003015f9054906101000a900473ffffffffffffffffffffffffffffffffffffffff1683600401838054610b7d90611fa4565b80601f0160208091040260200160405190810160405280929190818152602001828054610ba990611fa4565b8015610bf45780601f10610bcb57610100808354040283529160200191610bf4565b820191905f5260205f20905b815481529060010190602001808311610bd757829003601f168201915b50505050509350808054610c0790611fa4565b80601f0160208091040260200160405190810160405280929190818152602001828054610c3390611fa4565b8015610c7e5780601f10610c5557610100808354040283529160200191610c7e565b820191905f5260205f20905b815481529060010190602001808311610c6157829003601f168201915b50505050509050955095509550955050509193509193565b5f801b610ca2816114ac565b610ccc7f0ce23c3e399818cfee81a7ab0880f714e53d7672b08df0fa62f2843416e1ea098361074e565b5050565b5f801b610cdc816114ac565b5f60015f3373ffffffffffffffffffffffffffffffffffffffff1673ffffffffffffffffffffffffffffffffffffffff1681526020019081526020015f205f018054610d2790611fa4565b905014610d69576040517f08c379a0000000000000000000000000000000000000000000000000000000008152600401610d60906123c5565b60405180910390fd5b5f6040518060a001604052808881526020018781526020018681526020018581526020018481525090508060015f3373ffffffffffffffffffffffffffffffffffffffff1673ffffffffffffffffffffffffffffffffffffffff1681526020019081526020015f205f820151815f019081610de49190612171565b506020820151816001019081610dfa9190612171565b506040820151816002019081610e109190612171565b506060820151816003019081610e269190612171565b506080820151816004019081610e3c9190612171565b50905050600233908060018154018082558091505060019003905f5260205f20015f9091909190916101000a81548173ffffffffffffffffffffffffffffffffffffffff021916908373ffffffffffffffffffffffffffffffffffffffff1602179055503373ffffffffffffffffffffffffffffffffffffffff167f1608b6b003a5b51a5995ff72980f8f1be63304bbc354945c125d99ab9ee82fa28888888888604051610eee959493929190611d97565b60405180910390a250505050505050565b5f805f8481526020019081526020015f205f015f8373ffffffffffffffffffffffffffffffffffffffff1673ffffffffffffffffffffffffffffffffffffffff1681526020019081526020015f205f9054906101000a900460ff16905092915050565b5f801b81565b5f801b610f74816114ac565b610f9e7f0ce23c3e399818cfee81a7ab0880f714e53d7672b08df0fa62f2843416e1ea09836113c1565b5050565b60608060608060605f60015f8873ffffffffffffffffffffffffffffffffffffffff1673ffffffffffffffffffffffffffffffffffffffff1681526020019081526020015f206040518060a00160405290815f8201805461100290611fa4565b80601f016020809104026020016040519081016040528092919081815260200182805461102e90611fa4565b80156110795780601f1061105057610100808354040283529160200191611079565b820191905f5260205f20905b81548152906001019060200180831161105c57829003601f168201915b5050505050815260200160018201805461109290611fa4565b80601f01602080910402602001604051908101604052809291908181526020018280546110be90611fa4565b80156111095780601f106110e057610100808354040283529160200191611109565b820191905f5260205f20905b8154815290600101906020018083116110ec57829003601f168201915b5050505050815260200160028201805461112290611fa4565b80601f016020809104026020016040519081016040528092919081815260200182805461114e90611fa4565b80156111995780601f1061117057610100808354040283529160200191611199565b820191905f5260205f20905b81548152906001019060200180831161117c57829003601f168201915b505050505081526020016003820180546111b290611fa4565b80601f01602080910402602001604051908101604052809291908181526020018280546111de90611fa4565b80156112295780601f1061120057610100808354040283529160200191611229565b820191905f5260205f20905b81548152906001019060200180831161120c57829003601f168201915b5050505050815260200160048201805461124290611fa4565b80601f016020809104026020016040519081016040528092919081815260200182805461126e90611fa4565b80156112b95780601f10611290576101008083540402835291602001916112b9565b820191905f5260205f20905b81548152906001019060200180831161129c57829003601f168201915b50505050508152505090505f815f0151511161130a576040517f08c379a00000000000000000000000000000000000000000000000000000000081526004016113019061242d565b60405180910390fd5b805f01518160200151826040015183606001518460800151955095509550955095505091939590929450565b606060028054806020026020016040519081016040528092919081815260200182805480156113b757602002820191905f5260205f20905b815f9054906101000a900473ffffffffffffffffffffffffffffffffffffffff1673ffffffffffffffffffffffffffffffffffffffff168152602001906001019080831161136e575b5050505050905090565b6113ca82610732565b6113d3816114ac565b6113dd83836115b0565b50505050565b5f60035f8381526020019081526020015f20805490509050919050565b5f8060035f8481526020019081526020015f2080549050119050919050565b7f0ce23c3e399818cfee81a7ab0880f714e53d7672b08df0fa62f2843416e1ea0981565b5f7f01ffc9a7000000000000000000000000000000000000000000000000000000007bffffffffffffffffffffffffffffffffffffffffffffffffffffffff1916827bffffffffffffffffffffffffffffffffffffffffffffffffffffffff1916149050919050565b6114bd816114b86115a9565b611699565b50565b5f6114cb8383610eff565b61159f5760015f808581526020019081526020015f205f015f8473ffffffffffffffffffffffffffffffffffffffff1673ffffffffffffffffffffffffffffffffffffffff1681526020019081526020015f205f6101000a81548160ff02191690831515021790555061153c6115a9565b73ffffffffffffffffffffffffffffffffffffffff168273ffffffffffffffffffffffffffffffffffffffff16847f2f8788117e7eff1d82e926ec794901d17c78024a50270940304540a733656f0d60405160405180910390a4600190506115a3565b5f90505b92915050565b5f33905090565b5f6115bb8383610eff565b1561168f575f805f8581526020019081526020015f205f015f8473ffffffffffffffffffffffffffffffffffffffff1673ffffffffffffffffffffffffffffffffffffffff1681526020019081526020015f205f6101000a81548160ff02191690831515021790555061162c6115a9565b73ffffffffffffffffffffffffffffffffffffffff168273ffffffffffffffffffffffffffffffffffffffff16847ff6391f5c32d9c69d2a47ea670b442974b53935d1edc7fd64eb21e047a839171b60405160405180910390a460019050611693565b5f90505b92915050565b6116a38282610eff565b6116e65780826040517fe2517d3f0000000000000000000000000000000000000000000000000000000081526004016116dd92919061244b565b60405180910390fd5b5050565b5f604051905090565b5f80fd5b5f80fd5b5f7fffffffff0000000000000000000000000000000000000000000000000000000082169050919050565b61172f816116fb565b8114611739575f80fd5b50565b5f8135905061174a81611726565b92915050565b5f60208284031215611765576117646116f3565b5b5f6117728482850161173c565b91505092915050565b5f8115159050919050565b61178f8161177b565b82525050565b5f6020820190506117a85f830184611786565b92915050565b5f819050919050565b6117c0816117ae565b81146117ca575f80fd5b50565b5f813590506117db816117b7565b92915050565b5f819050919050565b6117f3816117e1565b81146117fd575f80fd5b50565b5f8135905061180e816117ea565b92915050565b5f806040838503121561182a576118296116f3565b5b5f611837858286016117cd565b925050602061184885828601611800565b9150509250929050565b5f81519050919050565b5f82825260208201905092915050565b5f5b8381101561188957808201518184015260208101905061186e565b5f8484015250505050565b5f601f19601f8301169050919050565b5f6118ae82611852565b6118b8818561185c565b93506118c881856020860161186c565b6118d181611894565b840191505092915050565b6118e5816117e1565b82525050565b5f73ffffffffffffffffffffffffffffffffffffffff82169050919050565b5f611914826118eb565b9050919050565b6119248161190a565b82525050565b5f6080820190508181035f83015261194281876118a4565b905061195160208301866118dc565b61195e604083018561191b565b818103606083015261197081846118a4565b905095945050505050565b6119848161190a565b811461198e575f80fd5b50565b5f8135905061199f8161197b565b92915050565b5f602082840312156119ba576119b96116f3565b5b5f6119c784828501611991565b91505092915050565b6119d9816117ae565b82525050565b5f6020820190506119f25f8301846119d0565b92915050565b5f60208284031215611a0d57611a0c6116f3565b5b5f611a1a848285016117cd565b91505092915050565b5f8060408385031215611a3957611a386116f3565b5b5f611a46858286016117cd565b9250506020611a5785828601611991565b9150509250929050565b5f80fd5b5f80fd5b5f80fd5b5f8083601f840112611a8257611a81611a61565b5b8235905067ffffffffffffffff811115611a9f57611a9e611a65565b5b602083019150836001820283011115611abb57611aba611a69565b5b9250929050565b5f805f805f60608688031215611adb57611ada6116f3565b5b5f611ae8888289016117cd565b955050602086013567ffffffffffffffff811115611b0957611b086116f7565b5b611b1588828901611a6d565b9450945050604086013567ffffffffffffffff811115611b3857611b376116f7565b5b611b4488828901611a6d565b92509250509295509295909350565b5f602082019050611b665f8301846118dc565b92915050565b5f80fd5b7f4e487b71000000000000000000000000000000000000000000000000000000005f52604160045260245ffd5b611ba682611894565b810181811067ffffffffffffffff82111715611bc557611bc4611b70565b5b80604052505050565b5f611bd76116ea565b9050611be38282611b9d565b919050565b5f67ffffffffffffffff821115611c0257611c01611b70565b5b611c0b82611894565b9050602081019050919050565b828183375f83830152505050565b5f611c38611c3384611be8565b611bce565b905082815260208101848484011115611c5457611c53611b6c565b5b611c5f848285611c18565b509392505050565b5f82601f830112611c7b57611c7a611a61565b5b8135611c8b848260208601611c26565b91505092915050565b5f805f805f60a08688031215611cad57611cac6116f3565b5b5f86013567ffffffffffffffff811115611cca57611cc96116f7565b5b611cd688828901611c67565b955050602086013567ffffffffffffffff811115611cf757611cf66116f7565b5b611d0388828901611c67565b945050604086013567ffffffffffffffff811115611d2457611d236116f7565b5b611d3088828901611c67565b935050606086013567ffffffffffffffff811115611d5157611d506116f7565b5b611d5d88828901611c67565b925050608086013567ffffffffffffffff811115611d7e57611d7d6116f7565b5b611d8a88828901611c67565b9150509295509295909350565b5f60a0820190508181035f830152611daf81886118a4565b90508181036020830152611dc381876118a4565b90508181036040830152611dd781866118a4565b90508181036060830152611deb81856118a4565b90508181036080830152611dff81846118a4565b90509695505050505050565b5f81519050919050565b5f82825260208201905092915050565b5f819050602082019050919050565b611e3d8161190a565b82525050565b5f611e4e8383611e34565b60208301905092915050565b5f602082019050919050565b5f611e7082611e0b565b611e7a8185611e15565b9350611e8583611e25565b805f5b83811015611eb5578151611e9c8882611e43565b9750611ea783611e5a565b925050600181019050611e88565b5085935050505092915050565b5f6020820190508181035f830152611eda8184611e66565b905092915050565b7f496e646578206f7574206f6620626f756e6473000000000000000000000000005f82015250565b5f611f1660138361185c565b9150611f2182611ee2565b602082019050919050565b5f6020820190508181035f830152611f4381611f0a565b9050919050565b7f4e487b71000000000000000000000000000000000000000000000000000000005f52603260045260245ffd5b7f4e487b71000000000000000000000000000000000000000000000000000000005f52602260045260245ffd5b5f6002820490506001821680611fbb57607f821691505b602082108103611fce57611fcd611f77565b5b50919050565b5f819050815f5260205f209050919050565b5f6020601f8301049050919050565b5f82821b905092915050565b5f600883026120307fffffffffffffffffffffffffffffffffffffffffffffffffffffffffffffffff82611ff5565b61203a8683611ff5565b95508019841693508086168417925050509392505050565b5f819050919050565b5f61207561207061206b846117e1565b612052565b6117e1565b9050919050565b5f819050919050565b61208e8361205b565b6120a261209a8261207c565b848454612001565b825550505050565b5f90565b6120b66120aa565b6120c1818484612085565b505050565b5b818110156120e4576120d95f826120ae565b6001810190506120c7565b5050565b601f821115612129576120fa81611fd4565b61210384611fe6565b81016020851015612112578190505b61212661211e85611fe6565b8301826120c6565b50505b505050565b5f82821c905092915050565b5f6121495f198460080261212e565b1980831691505092915050565b5f612161838361213a565b9150826002028217905092915050565b61217a82611852565b67ffffffffffffffff81111561219357612192611b70565b5b61219d8254611fa4565b6121a88282856120e8565b5f60209050601f8311600181146121d9575f84156121c7578287015190505b6121d18582612156565b865550612238565b601f1984166121e786611fd4565b5f5b8281101561220e578489015182556001820191506020850194506020810190506121e9565b8683101561222b5784890151612227601f89168261213a565b8355505b6001600288020188555050505b505050505050565b7f4e487b71000000000000000000000000000000000000000000000000000000005f52601160045260245ffd5b5f612277826117e1565b9150612282836117e1565b925082820390508181111561229a57612299612240565b5b92915050565b5f6122ab838561185c565b93506122b8838584611c18565b6122c183611894565b840190509392505050565b5f6060820190508181035f8301526122e58187896122a0565b90506122f460208301866118dc565b81810360408301526123078184866122a0565b90509695505050505050565b7f4e6f206174746573746174696f6e0000000000000000000000000000000000005f82015250565b5f612347600e8361185c565b915061235282612313565b602082019050919050565b5f6020820190508181035f8301526123748161233b565b9050919050565b7f416c7265616479207265676973746572656400000000000000000000000000005f82015250565b5f6123af60128361185c565b91506123ba8261237b565b602082019050919050565b5f6020820190508181035f8301526123dc816123a3565b9050919050565b7f546f7572697374206e6f7420666f756e640000000000000000000000000000005f82015250565b5f61241760118361185c565b9150612422826123e3565b602082019050919050565b5f6020820190508181035f8301526124448161240b565b9050919050565b5f60408201905061245e5f83018561191b565b61246b60208301846119d0565b939250505056fea26469706673582212207233f30eb80925270338fb505709af1da126dbc63254e7a0bf24757a4094f5f664736f6c63430008150033",
  "immutableReferences": {},
  "source": "// SPDX-License-Identifier: MIT\npragma solidity ^0.8.20;\n\nimport \"@openzeppelin/contracts/access/AccessControl.sol\";\n\n/// @title Migrations + TouristRegistry Combined\n/// @notice Combined file containing both the Migrations helper contract and the TouristRegistry\n///         (put this file in backend/app/contracts/contracts/CombinedContracts.sol)\n//\n/// NOTE: Keep your migration scripts unchanged:\n///   migrations/1_initial_migration.js -> deploys Migrations\n///   migrations/2_deploy_contracts.js  -> deploys TouristRegistry\n// ------------------------------------------------------------------------\n\n/*\n * Migrations helper (keeps Truffle migration state)\n */\ncontract Migrations {\n    address public owner = msg.sender;\n    uint public last_completed_migration;\n\n    modifier restricted() {\n        require(msg.sender == owner, \"This function is restricted to the contract's owner\");\n        _;\n    }\n\n    function setCompleted(uint completed) public restricted {\n        last_completed_migration = completed;\n    }\n}\n\n// ------------------------------------------------------------------------\n// TouristRegistry (your provided contract)\n// ------------------------------------------------------------------------\ncontract TouristRegistry is AccessControl {\n    // ------------------------\n    // Role constants\n    // ------------------------\n    bytes32 public constant VERIFIER_ROLE = keccak256(\"VERIFIER_ROLE\");\n    bytes32 public constant EMERGENCY_ROLE = keccak256(\"EMERGENCY_ROLE\");\n\n    // ------------------------\n    // Legacy tourist struct (admin-only, not recommended for production)\n    // ------------------------\n    struct Tourist {\n        string fullName;\n        string kycId;\n        string visitStart;\n        string visitEnd;\n        string emergencyContacts; // Stored as JSON or comma-separated\n    }\n\n    // ------------------------\n    // Privacy-first attestation struct\n    // ------------------------\n    struct Attestation {\n        bytes32 subjectHash; // keccak256 hash of DID, phone, or identifier\n        string cid;          // IPFS CID of encrypted KYC blob\n        uint256 timestamp;\n        address issuer;      // Verifier who anchored this\n        string meta;         // Small JSON metadata\n    }\n\n    // ------------------------\n    // Storage\n    // ------------------------\n    mapping(address => Tourist) private tourists;            // Legacy mapping\n    address[] private registeredTourists;                    // List of tourist addresses\n    mapping(bytes32 => Attestation[]) private attestations;  // subjectHash => attestations\n\n    // ------------------------\n    // Events\n    // ------------------------\n    event TouristRegistered(\n        address indexed touristAddress,\n        string fullName,\n        string kycId,\n        string visitStart,\n        string visitEnd,\n        string emergencyContacts\n    );\n\n    event KycAnchored(\n        bytes32 indexed subjectHash,\n        string cid,\n        address indexed issuer,\n        uint256 indexed attestationId,\n        uint256 timestamp,\n        string meta\n    );\n\n    // ------------------------\n    // Constructor\n    // ------------------------\n    constructor() {\n        address adminAddr = msg.sender;\n        _grantRole(DEFAULT_ADMIN_ROLE, adminAddr);\n        _grantRole(VERIFIER_ROLE, adminAddr);\n        _grantRole(EMERGENCY_ROLE, adminAddr);\n    }\n\n    // ------------------------\n    // Legacy APIs (admin-only, on-chain PII storage)\n    // ------------------------\n\n    function registerTourist(\n        string memory _fullName,\n        string memory _kycId,\n        string memory _visitStart,\n        string memory _visitEnd,\n        string memory _emergencyContacts\n    ) external onlyRole(DEFAULT_ADMIN_ROLE) {\n        require(bytes(tourists[msg.sender].fullName).length == 0, \"Already registered\");\n\n        Tourist memory newTourist = Tourist({\n            fullName: _fullName,\n            kycId: _kycId,\n            visitStart: _visitStart,\n            visitEnd: _visitEnd,\n            emergencyContacts: _emergencyContacts\n        });\n\n        tourists[msg.sender] = newTourist;\n        registeredTourists.push(msg.sender);\n\n        emit TouristRegistered(\n            msg.sender,\n            _fullName,\n            _kycId,\n            _visitStart,\n            _visitEnd,\n            _emergencyContacts\n        );\n    }\n\n    function getTourist(address _touristAddress)\n        external\n        view\n        returns (\n            string memory fullName,\n            string memory kycId,\n            string memory visitStart,\n            string memory visitEnd,\n            string memory emergencyContacts\n        )\n    {\n        Tourist memory t = tourists[_touristAddress];\n        require(bytes(t.fullName).length > 0, \"Tourist not found\");\n        return (t.fullName, t.kycId, t.visitStart, t.visitEnd, t.emergencyContacts);\n    }\n\n    function getAllRegisteredTourists() external view returns (address[] memory) {\n        return registeredTourists;\n    }\n\n    // ------------------------\n    // Privacy-first KYC attestation APIs\n    // ------------------------\n\n    function anchorKyc(\n        bytes32 subjectHash,\n        string calldata cid,\n        string calldata meta\n    )\n        external\n        onlyRole(VERIFIER_ROLE)\n        returns (uint256 attestationId)\n    {\n        Attestation memory a = Attestation({\n            subjectHash: subjectHash,\n            cid: cid,\n            timestamp: block.timestamp,\n            issuer: _msgSender(),\n            meta: meta\n        });\n\n        attestations[subjectHash].push(a);\n        // attestationId is index in array: length - 1\n        attestationId = attestations[subjectHash].length - 1;\n\n        emit KycAnchored(subjectHash, cid, _msgSender(), attestationId, block.timestamp, meta);\n    }\n\n    function hasKyc(bytes32 subjectHash) external view returns (bool) {\n        return attestations[subjectHash].length > 0;\n    }\n\n    function getLatestAttestation(bytes32 subjectHash)\n        external\n        view\n        onlyRole(EMERGENCY_ROLE)\n        returns (string memory cid, uint256 timestamp, address issuer, string memory meta)\n    {\n        require(attestations[subjectHash].length > 0, \"No attestation\");\n        Attestation storage a = attestations[subjectHash][attestations[subjectHash].length - 1];\n        return (a.cid, a.timestamp, a.issuer, a.meta);\n    }\n\n    function getAttestationByIndex(bytes32 subjectHash, uint256 index)\n        external\n        view\n        onlyRole(VERIFIER_ROLE)\n        returns (string memory cid, uint256 timestamp, address issuer, string memory meta)\n    {\n        require(index < attestations[subjectHash].length, \"Index out of bounds\");\n        Attestation storage a = attestations[subjectHash][index];\n        return (a.cid, a.timestamp, a.issuer, a.meta);\n    }\n\n    function attestationCount(bytes32 subjectHash) external view returns (uint256) {\n        return attestations[subjectHash].length;\n    }\n\n    // ------------------------\n    // Role Management Wrappers\n    // ------------------------\n    function grantVerifier(address who) external onlyRole(DEFAULT_ADMIN_ROLE) {\n        grantRole(VERIFIER_ROLE, who);\n    }\n\n    function revokeVerifier(address who) external onlyRole(DEFAULT_ADMIN_ROLE) {\n        revokeRole(VERIFIER_ROLE, who);\n    }\n\n    function grantEmergencyResponder(address who) external onlyRole(DEFAULT_ADMIN_ROLE) {\n        grantRole(EMERGENCY_ROLE, who);\n    }\n\n    function revokeEmergencyResponder(address who) external onlyRole(DEFAULT_ADMIN_ROLE) {\n        revokeRole(EMERGENCY_ROLE, who);\n    }\n}\n",
  "sourcePath": "C:\\Users\\HP\\OneDrive\\Desktop\\SIH\\backend\\app\\contracts\\contracts\\TouristRegistry.sol",
  "compiler": {
    "name": "solc",
    "version": "0.8.21+commit.d9974bed.Emscripten.clang"
  },
  "schemaVersion": "3.4.16",
  "updatedAt": "2025-09-10T04:13:02.550Z",
  "networkType": "ethereum",
  "devdoc": {
    "errors": {
      "AccessControlBadConfirmation()": [
        {
          "details": "The caller of a function is not the expected one. NOTE: Don't confuse with {AccessControlUnauthorizedAccount}."
        }
      ],
      "AccessControlUnauthorizedAccount(address,bytes32)": [
        {
          "details": "The `account` is missing a role."
        }
      ]
    },
    "events": {
      "RoleAdminChanged(bytes32,bytes32,bytes32)": {
        "details": "Emitted when `newAdminRole` is set as ``role``'s admin role, replacing `previousAdminRole` `DEFAULT_ADMIN_ROLE` is the starting admin for all roles, despite {RoleAdminChanged} not being emitted to signal this."
      },
      "RoleGranted(bytes32,address,address)": {
        "details": "Emitted when `account` is granted `role`. `sender` is the account that originated the contract call. This account bears the admin role (for the granted role). Expected in cases where the role was granted using the internal {AccessControl-_grantRole}."
      },
      "RoleRevoked(bytes32,address,address)": {
        "details": "Emitted when `account` is revoked `role`. `sender` is the account that originated the contract call:   - if using `revokeRole`, it is the admin role bearer   - if using `renounceRole`, it is the role bearer (i.e. `account`)"
      }
    },
    "kind": "dev",
    "methods": {
      "getRoleAdmin(bytes32)": {
        "details": "Returns the admin role that controls `role`. See {grantRole} and {revokeRole}. To change a role's admin, use {_setRoleAdmin}."
      },
      "grantRole(bytes32,address)": {
        "details": "Grants `role` to `account`. If `account` had not been already granted `role`, emits a {RoleGranted} event. Requirements: - the caller must have ``role``'s admin role. May emit a {RoleGranted} event."
      },
      "hasRole(bytes32,address)": {
        "details": "Returns `true` if `account` has been granted `role`."
      },
      "renounceRole(bytes32,address)": {
        "details": "Revokes `role` from the calling account. Roles are often managed via {grantRole} and {revokeRole}: this function's purpose is to provide a mechanism for accounts to lose their privileges if they are compromised (such as when a trusted device is misplaced). If the calling account had been revoked `role`, emits a {RoleRevoked} event. Requirements: - the caller must be `callerConfirmation`. May emit a {RoleRevoked} event."
      },
      "revokeRole(bytes32,address)": {
        "details": "Revokes `role` from `account`. If `account` had been granted `role`, emits a {RoleRevoked} event. Requirements: - the caller must have ``role``'s admin role. May emit a {RoleRevoked} event."
      },
      "supportsInterface(bytes4)": {
        "details": "Returns true if this contract implements the interface defined by `interfaceId`. See the corresponding https://eips.ethereum.org/EIPS/eip-165#how-interfaces-are-identified[ERC section] to learn more about how these ids are created. This function call must use less than 30 000 gas."
      }
    },
    "version": 1
  },
  "userdoc": {
    "kind": "user",
    "methods": {},
    "version": 1
  }
}